:020000040800F2
:1000000000000220217B000845130008531300085C
:10001000591300085F130008651300080000000072
:100020000000000000000000000000006B1300084A
:1000300079130008000000008713000895130008DA
:10004000717B0008717B0008717B0008717B0008E0
:10005000717B0008717B0008717B0008717B0008D0
:10006000717B0008717B0008717B0008717B0008C0
:10007000717B0008717B0008717B0008717B0008B0
:10008000717B0008717B0008717B0008717B0008A0
:10009000717B0008717B0008717B0008717B000890
:1000A000717B0008717B0008717B0008717B000880
:1000B000717B0008717B0008717B0008717B000870
:1000C000717B0008717B0008717B0008717B000860
:1000D000717B0008717B0008717B0008717B000850
:1000E000717B0008717B0008717B0008717B000840
:1000F000717B0008717B0008717B0008717B000830
:10010000717B0008717B0008717B0008717B00081F
:10011000717B0008717B0008717B0008717B00080F
:10012000717B0008717B0008717B0008717B0008FF
:10013000717B0008717B0008717B0008717B0008EF
:10014000717B0008717B0008717B0008A113000817
:10015000717B0008717B0008717B0008717B0008CF
:10016000717B0008717B0008717B0008717B0008BF
:10017000717B0008717B0008717B000800000000A3
:08018000717B0008717B00088F
:1001880010B5054C237833B9044B13B10448AFF3C9
:1001980000800123237010BDE4010020000000004E
:1001A8008C7D000808B5034B1BB103490348AFF326
:1001B800008008BD00000000E80100208C7D0008D8
:1001C80010F8012B11F8013B012A28BF9A42F7D0F9
:1001D800D01A704781F0004102E000BF83F000436D
:1001E80030B54FEA41044FEA430594EA050F08BFCA
:1001F80090EA020F1FBF54EA000C55EA020C7FEA8E
:10020800645C7FEA655C00F0E2804FEA5454D4EB0A
:100218005555B8BF6D420CDD2C4480EA020281EAD4
:10022800030382EA000083EA010180EA020281EA0C
:100238000303362D88BF30BD11F0004F4FEA01315E
:100248004FF4801C4CEA113102D0404261EB41016D
:1002580013F0004F4FEA03334CEA133302D05242F3
:1002680063EB430394EA050F00F0A780A4F10104AF
:10027800D5F1200E0DDB02FA0EFC22FA05F28018E9
:1002880041F1000103FA0EF2801843FA05F35941CF
:100298000EE0A5F120050EF1200E012A03FA0EFC4E
:1002A80028BF4CF0020C43FA05F3C01851EBE37178
:1002B80001F0004507D54FF0000EDCF1000C7EEB95
:1002C80000006EEB0101B1F5801F1BD3B1F5001FD3
:1002D8000CD349085FEA30004FEA3C0C04F10104F2
:1002E8004FEA445212F5800F80F09A80BCF1004F1B
:1002F80008BF5FEA500C50F1000041EB045141EA9D
:10030800050130BD5FEA4C0C404141EB010111F49D
:10031800801FA4F10104E9D191F0000F04BF014648
:100328000020B1FA81F308BF2033A3F10B03B3F126
:1003380020020CDA0C3208DD02F1140CC2F10C02B6
:1003480001FA0CF021FA02F10CE002F11402D8BF14
:10035800C2F1200C01FA02F120FA0CFCDCBF41EAE0
:100368000C019040E41AA2BF01EB0451294330BDAF
:100378006FEA04041F3C1CDA0C340EDC04F114048C
:10038800C4F1200220FA04F001FA02F340EA030063
:1003980021FA04F345EA030130BDC4F10C04C4F1A9
:1003A800200220FA02F001FA04F340EA0300294689
:1003B80030BD21FA04F0294630BD94F0000F83F4D3
:1003C800801306BF81F480110134013D4EE77FEAB6
:1003D800645C18BF7FEA655C29D094EA050F08BF02
:1003E80090EA020F05D054EA000C04BF19461046E3
:1003F80030BD91EA030F1EBF0021002030BD5FEA27
:10040800545C05D14000494128BF41F0004130BD4E
:1004180014F580043CBF01F5801130BD01F00045A2
:1004280045F0FE4141F470014FF0000030BD7FEA15
:10043800645C1ABF194610467FEA655C1CBF0B4610
:10044800024650EA013406BF52EA033591EA030F27
:1004580041F4002130BD00BF90F0000F04BF00211F
:10046800704730B54FF4806404F132044FF0000552
:100478004FF0000150E700BF90F0000F04BF0021CB
:10048800704730B54FF4806404F1320410F0004531
:1004980048BF40424FF000013EE700BF42004FEA2C
:1004A800E2014FEA31014FEA02701FBF12F07F43A9
:1004B80093F07F4F81F06051704792F0000F14BFA6
:1004C80093F07F4F704730B54FF4607401F00045EA
:1004D80021F0004120E700BF50EA010208BF704741
:1004E80030B54FF000050AE050EA010208BF704736
:1004F80030B511F0004502D5404261EB41014FF49F
:10050800806404F132045FEA915C3FF4DCAE4FF0A2
:1005180003025FEADC0C18BF03325FEADC0C18BF89
:10052800033202EBDC02C2F1200300FA03FC20FADA
:1005380002F001FA03FE40EA0E0021FA02F1144427
:10054800C1E600BF70B54FF0FF0C4CF4E06C1CEA3C
:1005580011541DBF1CEA135594EA0C0F95EA0C0FB1
:1005680000F0DEF82C4481EA030621EA4C5123EA24
:100578004C5350EA013518BF52EA033541F4801153
:1005880043F4801338D0A0FB02CE4FF00005E1FB06
:1005980002E506F00042E0FB03E54FF00006E1FB50
:1005A80003569CF0000F18BF4EF0010EA4F1FF0493
:1005B800B6F5007F64F5407404D25FEA4E0E6D41D3
:1005C80046EB060642EAC62141EA55514FEAC520E4
:1005D80040EA5E504FEACE2EB4F1FD0C88BFBCF560
:1005E800E06F1ED8BEF1004F08BF5FEA500E50F111
:1005F800000041EB045170BD06F0004646EA0101D7
:1006080040EA020081EA0301B4EB5C04C2BFD4EB08
:100618000C0541EA045170BD41F480114FF0000E01
:10062800013C00F3AB8014F1360FDEBF002001F06F
:10063800004170BDC4F10004203C35DA0C341BDCE9
:1006480004F11404C4F1200500FA05F320FA04F0BB
:1006580001FA05F240EA020001F0004221F00041EF
:1006680010EBD37021FA04F642EB06015EEA430E62
:1006780008BF20EAD37070BDC4F10C04C4F1200592
:1006880000FA04F320FA05F001FA04F240EA020045
:1006980001F0004110EBD37041F100015EEA430E16
:1006A80008BF20EAD37070BDC4F1200500FA05F236
:1006B8004EEA020E20FA04F301FA05F243EA0203B5
:1006C80021FA04F001F0004121FA04F220EA0200C4
:1006D80000EBD3705EEA430E08BF20EAD37070BD0A
:1006E80094F0000F0FD101F00046400041EB0101EA
:1006F80011F4801F08BF013CF7D041EA060195F0CC
:10070800000F18BF704703F00046520043EB030385
:1007180013F4801F08BF013DF7D043EA0603704772
:1007280094EA0C0F0CEA135518BF95EA0C0F0CD07D
:1007380050EA410618BF52EA4306D1D181EA0301C3
:1007480001F000414FF0000070BD50EA410606BFBD
:100758001046194652EA430619D094EA0C0F02D102
:1007680050EA013613D195EA0C0F05D152EA033647
:100778001CBF104619460AD181EA030101F0004165
:1007880041F0FE4141F470014FF0000070BD41F0AE
:10079800FE4141F4780170BD70B54FF0FF0C4CF488
:1007A800E06C1CEA11541DBF1CEA135594EA0C0FA7
:1007B80095EA0C0F00F0A7F8A4EB050481EA030EF4
:1007C80052EA03354FEA013100F088804FEA0333DB
:1007D8004FF0805545EA131343EA12634FEA0222A9
:1007E80045EA111545EA10654FEA00260EF000416A
:1007F8009D4208BF964244F1FD0404F5407402D2BC
:100808005B084FEA3202B61A65EB03055B084FEA4C
:1008180032024FF480104FF4002CB6EB020E75EB49
:10082800030E22BFB61A754640EA0C005B084FEA71
:100838003202B6EB020E75EB030E22BFB61A7546EE
:1008480040EA5C005B084FEA3202B6EB020E75EB39
:10085800030E22BFB61A754640EA9C005B084FEAB1
:100868003202B6EB020E75EB030E22BFB61A7546BE
:1008780040EADC0055EA060E18D04FEA051545EAAD
:1008880016754FEA06164FEAC30343EA52734FEA56
:10089800C2025FEA1C1CC0D111F4801F0BD141EACF
:1008A80000014FF000004FF0004CB6E711F4801F34
:1008B80004BF01430020B4F1FD0C88BFBCF5E06F14
:1008C8003FF6AFAEB5EB030C04BFB6EB020C5FEA24
:1008D800500C50F1000041EB045170BD0EF0004E79
:1008E8004EEA113114EB5C04C2BFD4EB0C0541EAAB
:1008F800045170BD41F480114FF0000E013C90E6A8
:1009080045EA060E8DE60CEA135594EA0C0F08BF6B
:1009180095EA0C0F3FF43BAF94EA0C0F0AD150EA6A
:1009280001347FF434AF95EA0C0F7FF425AF1046FD
:1009380019462CE795EA0C0F06D152EA03353FF425
:10094800FDAE1046194622E750EA410618BF52EAA2
:1009580043067FF4C5AE50EA41047FF40DAF52EA76
:1009680043057FF4EBAE12E74FEA410212F500129D
:1009780015D211D56FF47873B3EB625212D94FEADE
:10098800C12343F0004343EA505311F0004F23FAC8
:1009980002F018BF404270474FF00000704750EA1D
:1009A800013005D111F0004008BF6FF000407047DA
:1009B8004FF00000704700BF53B94AB9002908BF7B
:1009C80000281CBF4FF0FF314FF0FF3000F07AB91C
:1009D800ADF1080C6DE904CE00F006F8DDF804E08E
:1009E800DDE9022304B070472DE9F0478C460D4637
:1009F8000446089E002B51D18A4217466DD9B2FA97
:100A080082FEBEF1000F0BD0CEF1200C01FA0EF5DC
:100A180020FA0CFC02FA0EF74CEA050C00FA0EF468
:100A28004FEA174A250CBCFBFAF81FFA87F90AFBAC
:100A380018CC45EA0C4508FB09F3AB420AD9ED1975
:100A480008F1FF3280F02381AB4240F22081A8F107
:100A580002083D44ED1AA4B2B5FBFAF00AFB1055A2
:100A680044EA054400FB09F9A14509D9E41900F154
:100A7800FF3380F00A81A14540F2078102383C44E7
:100A8800A4EB090440EA08400021002E61D024FAB2
:100A98000EF4002334607360BDE8F0878B4207D9F9
:100AA800002E54D0002186E821000846BDE8F087D2
:100AB800B3FA83F1002940F08E80AB4202D3824220
:100AC80000F2FA80841A65EB03050120AC46002E7B
:100AD8003FD086E81010BDE8F08712B90127B7FBB0
:100AE800F2F7B7FA87FEBEF1000F34D1EB1B3A0CD0
:100AF8001FFA87FC0121B3FBF2F8250C02FB18331F
:100B080045EA03450CFB08F3AB4207D9ED1908F198
:100B1800FF3002D2AB4200F2D1808046ED1AA3B278
:100B2800B5FBF2F002FB105543EA05440CFB00FC50
:100B3800A44507D9E41900F1FF3302D2A44500F215
:100B4800B8801846A4EB0C0440EA08409DE73146FB
:100B58003046BDE8F087CEF1200405FA0EF307FA17
:100B68000EF720FA04F83A0C25FA04F448EA0308C8
:100B7800B4FBF2F14FEA184502FB11441FFA87FC57
:100B880045EA044501FB0CF3AB4200FA0EF409D91F
:100B9800ED1901F1FF3080F08A80AB4240F2878086
:100BA80002393D44EB1A1FFA88F5B3FBF2F002FB59
:100BB800103345EA034500FB0CF3AB4207D9ED19A6
:100BC80000F1FF386FD2AB426DD902383D44EB1AC1
:100BD80040EA01418FE7C1F1200722FA07F88B406C
:100BE80005FA01F448EA030320FA07FE4FEA134C1A
:100BF800FD404EEA040EB5FBFCF94FEA1E440CFB1F
:100C080019551FFA83F844EA054509FB08F4AC4274
:100C180002FA01F200FA01FA08D9ED1809F1FF30D9
:100C280043D2AC4241D9A9F102091D442D1B1FFA38
:100C38008EFEB5FBFCF00CFB10554EEA054400FB9C
:100C480008F8A04507D9E41800F1FF3529D2A045D6
:100C580027D902381C4440EA0940A4EB0804A0FB49
:100C680002894C45C6464D4615D312D056B1BAEB4B
:100C78000E0364EB050404FA07F7CB401F43CC408E
:100C8800376074600021BDE8F0871846F8E69046A2
:100C9800E0E6C245EAD2B8EB020E69EB030501387B
:100CA800E4E72846D7E7404691E78146BEE7014694
:100CB80078E702383C4445E7084608E7A8F1020807
:100CC8003D442BE7704700BF80B500AF00F0B0FB94
:100CD80000F044F900F070FA00F0A8F906F014FAF0
:100CE8000021124802F00EFD0421104802F00AFD0E
:100CF80008210E4802F006FD0C210C4802F002FD06
:100D08000B4B05221A710A4B00225A71084B00221C
:100D18009A71074B0A22DA71054B1A6811465B680B
:100D28001A460846114600F049F8FEE71802002066
:100D380010020020B0B584B000AFF860B9607A60E6
:100D48003B603A6AFB68D31A1846FFF795FB0446DE
:100D58000D46BA68FB68D31A1846FFF78DFB0246A2
:100D68000B4620462946FFF717FD03460C46254645
:100D78001C463A687B68D31A1846FFF77DFB024683
:100D88000B4620462946FFF7DDFB03460C46254661
:100D98001C467868FFF770FB02460B46204629463A
:100DA800FFF71EFA03460C4618462146FFF7DCFDFE
:100DB800034618461037BD46B0BD000080B586B062
:100DC80000AF3B4683E803003B79C3F15A02134660
:100DD8001B019B1ADB00214A82FB03121A44921161
:100DE800DB17D31A0A337B617B79C3F15A021346A6
:100DF8001B019B1ADB00194A82FB03121A44921149
:100E0800DB17D31A0A333B61BB79C3F15A02134685
:100E18001B019B1ADB00114A82FB03121A44921130
:100E2800DB17D31A0A33FB60FB79C3F15A02134666
:100E38001B019B1ADB00094A82FB03121A44921118
:100E4800DB17D31A0A33BB60BB68FA68396978695B
:100E580000F006F800BF1837BD4680BDB7600BB676
:100E680090B587B002AFF860B9607A603B601A4B02
:100E78001C68FB680093FA233222B4210020FFF794
:100E880059FF03466363144B1C68BB680093FA233D
:100E98003222B4210020FFF74DFF0346A3630E4B17
:100EA8001C687B680093FA233222B4210020FFF7E4
:100EB80041FF0346E363084B1C683B680093FA2331
:100EC8003222B4210020FFF735FF0346236400BF18
:100ED8001437BD4690BD00BF1802002080B584B00D
:100EE80000AF786039603B68042B16D107F10C031A
:100EF8003A687968184606F073FE07F10C0315493D
:100F08001846FFF75DF90346002B1ED13B689BB2DC
:100F18001946786806F0BCF917E03B68082B14D12D
:100F28003A6879680C4806F05BFE0A490A48FFF7F8
:100F380047F90346002B08D1074B1A6811465B682E
:100F48001A4608461146FFF739FF00BF1037BD465D
:100F580080BD00BFEC7D00081002002080B594B071
:100F680000AF07F1200330220021184606F043FEA7
:100F780007F10C0300221A605A609A60DA601A615D
:100F88000023BB60274A274B1B6C43F08053136434
:100F9800244B1B6C03F08053BB60BB6800237B6051
:100FA800214A214B1B6843F4804313601E4B1B6886
:100FB80003F480437B607B6801233B624FF48033FA
:100FC8007B620223BB634FF48003FB6304233B640F
:100FD80048237B640223BB640323FB6407F12003DB
:100FE800184601F0F5FE0346002B01D000F01AF96F
:100FF8000F23FB6002233B6100237B614FF4805386
:10100800BB610023FB6107F10C030221184602F0C3
:101018004FF90346002B01D000F004F900BF503708
:10102800BD4680BD003802400070004080B596B0D3
:1010380000AF07F1480300221A605A609A60DA602C
:1010480007F1400300221A605A6007F124030022C6
:101058001A605A609A60DA601A615A619A613B1D97
:1010680020220021184606F0C6FD514B514A1A604D
:101078004F4B4FF4B4725A604D4B00229A604C4B60
:101088004FF4FA62DA604A4B00221A61484B002298
:101098005A61474B00229A61454802F0D3FA034649
:1010A800002B01D000F0BEF84FF48053BB6407F169
:1010B800480319463E4802F029FC0346002B01D09C
:1010C80000F0B0F83A4802F0E8FA0346002B01D0E5
:1010D80000F0A8F800233B6400237B6407F1400379
:1010E8001946334802F0DAFF0346002B01D000F01E
:1010F80099F860237B623223BB620023FB620023E2
:101108003B6300237B630023BB630023FB6307F17E
:10111800240300221946264802F032FB0346002B1E
:1011280001D000F07FF807F1240304221946204873
:1011380002F026FB0346002B01D000F073F807F1FC
:101148002403082219461A4802F01AFB0346002B0A
:1011580001D000F067F807F124030C22194614485F
:1011680002F00EFB0346002B01D000F05BF80023D1
:101178007B600023BB600023FB6000233B610023EE
:101188007B614FF40053BB6100233B623B1D194652
:10119800074802F0FFFF0346002B01D000F042F899
:1011A800034800F091F800BF5837BD4680BD00BF26
:1011B800180200200000014080B485B000AF002371
:1011C800FB60174A164B1B6B43F080031363144BE9
:1011D8001B6B03F08003FB60FB680023BB60104AB5
:1011E8000F4B1B6B43F0100313630D4B1B6B03F08A
:1011F8001003BB60BB6800237B60094A084B1B6B6C
:1012080043F001031363064B1B6B03F001037B6080
:101218007B6800BF1437BD465DF8047B704700BF8C
:101228000038024080B400AF00BFBD465DF8047BC3
:101238007047000080B483B000AF00237B60104A81
:101248000F4B5B6C43F4804353640D4B5B6C03F4AE
:1012580080437B607B6800233B60094A084B1B6C1A
:1012680043F080531364064B1B6C03F080533B60C0
:101278003B6800BF0C37BD465DF8047B704700BF74
:101288000038024080B485B000AF78607B681B6886
:101298000B4A93420DD10023FB600A4A094B5B6C51
:1012A80043F001035364074B5B6C03F00103FB60DD
:1012B800FB6800BF1437BD465DF8047B704700BF6C
:1012C800000001400038024080B588B000AF786067
:1012D80007F10C0300221A605A609A60DA601A61FA
:1012E8007B681B68124A93421ED10023BB60114AD7
:1012F800104B1B6B43F0100313630E4B1B6B03F077
:101308001003BB60BB684FF4D443FB6002233B610E
:1013180000237B610023BB610123FB6107F10C0300
:101328001946054800F028FA00BF2037BD4680BDA1
:1013380000000140003802400010024080B400AFB5
:1013480000BFBD465DF8047B704780B400AFFEE780
:1013580080B400AFFEE780B400AFFEE780B400AF12
:10136800FEE780B400AF00BFBD465DF8047B704760
:1013780080B400AF00BFBD465DF8047B704780B401
:1013880000AF00BFBD465DF8047B704780B500AF75
:1013980000F0A0F800BF80BD80B500AF024800F0A3
:1013A800D5FC00BF80BD00BF2C17002080B584B0DD
:1013B80000AF7860114B1B68002B02D10F4B104A0D
:1013C8001A600E4B1B68FB600C4B1A687B68134451
:1013D8006A46934207D906F0C9FB02460C231360FC
:1013E8004FF0FF3306E0054B1A687B681344034A45
:1013F8001360FB6818461037BD4680BD0002002008
:10140800381B002080B400AF084A084BD3F8883056
:1014180043F47003C2F88830044B4FF000629A60BE
:1014280000BFBD465DF8047B704700BF00ED00E0DB
:1014380080B500AF0E4A0E4B1B6843F4007313606F
:101448000B4A0B4B1B6843F480631360084A084B34
:101458001B6843F480731360032000F04BF90020ED
:1014680000F008F8FFF7E6FE0023184680BD00BF2D
:10147800003C024080B582B000AF7860124B1A6819
:10148800124B1B7819464FF47A73B3FBF1F3B2FB96
:10149800F3F3184600F063F90346002B01D001234B
:1014A8000EE07B680F2B0AD8002279684FF0FF30D6
:1014B80000F02BF9064A7B681360002300E0012343
:1014C80018460837BD4680BD0000002008000020EF
:1014D8000400002080B400AF064B1B781A46064B68
:1014E8001B681344044A136000BFBD465DF8047BC3
:1014F800704700BF080000205802002080B400AFE9
:10150800034B1B681846BD465DF8047B704700BF57
:101518005802002080B584B000AF7860FFF7EEFF76
:10152800B8607B68FB60FB68B3F1FF3F05D0094BEF
:101538001B781A46FB681344FB6000BFFFF7DEFF09
:101548000246BB68D21AFB689A42F7D300BF10372D
:10155800BD4680BD0800002080B485B000AF78602B
:101568007B6803F00703FB600C4BDB68BB60BA6861
:101578004FF6FF031340BB60FB681A02BB681343B6
:1015880043F0BF6343F40033BB60044ABB68D360D5
:1015980000BF1437BD465DF8047B704700ED00E0DE
:1015A80080B400AF044BDB681B0A03F0070318463E
:1015B800BD465DF8047B704700ED00E080B483B061
:1015C80000AF0346FB7197F90730002B0BDB094985
:1015D80097F907305B09FA7902F01F02012000FA37
:1015E80002F241F8232000BF0C37BD465DF8047BAA
:1015F800704700BF00E100E080B483B000AF03464D
:101608003960FB7197F90730002B0ADB0D4997F910
:1016180007303A68D2B21201D2B20B4483F80023E1
:101628000AE00949FB7903F00F03043B3A68D2B298
:101638001201D2B20B441A7600BF0C37BD465DF8D2
:10164800047B704700E100E000ED00E080B489B061
:1016580000AFF860B9607A60FB6803F00703FB61CC
:10166800FB69C3F10703042B28BF0423BB61FB6993
:101678000433062B02D9FB69033B00E000237B619E
:101688000122BB6902FA03F35A1EBB681A407B6940
:101698009A4001217B6901FA03F3591E7B680B40CC
:1016A800134318462437BD465DF8047B7047000095
:1016B80080B582B000AF78607B68013BB3F1807F72
:1016C80001D301230FE00A4A7B68013B53600F21D5
:1016D8004FF0FF30FFF790FF054B00229A60044B54
:1016E80007221A60002318460837BD4680BD00BF90
:1016F80010E000E080B582B000AF78607868FFF74E
:101708002BFF00BF0837BD4680BD80B586B000AF4F
:101718000346B9607A60FB7300237B61FFF740FFE3
:1017280078617A68B9687869FFF790FF024697F997
:101738000F3011461846FFF75FFF00BF1837BD4648
:1017480080BD80B582B000AF0346FB7197F90730C2
:101758001846FFF733FF00BF0837BD4680BD80B588
:1017680082B000AF78607868FFF7A2FF034618469A
:101778000837BD4680BD000080B489B000AF7860EE
:10178800396000237B6100233B610023BB61002398
:10179800FB616BE10122FB6902FA03F37B613B68A1
:1017A8001A687B6913403B613A697B699A4240F049
:1017B8005A813B685B68012B0BD03B685B68022B46
:1017C80007D03B685B68112B03D03B685B68122B22
:1017D80030D17B689B68BB61FB695B00032202FA1E
:1017E80003F3DB43BA691340BB613B68DA68FB6902
:1017F8005B0002FA03F3BA691343BB617B68BA69F9
:101808009A607B685B68BB610122FB6902FA03F39B
:10181800DB43BA691340BB613B685B681B0903F093
:101828000102FB6902FA03F3BA691343BB617B68DF
:10183800BA695A607B68DB68BB61FB695B0003229D
:1018480002FA03F3DB43BA691340BB613B689A6849
:10185800FB695B0002FA03F3BA691343BB617B6857
:10186800BA69DA603B685B68022B03D03B685B6847
:10187800122B23D1FB69DA087B68083253F822302F
:10188800BB61FB6903F007039B000F2202FA03F315
:10189800DB43BA691340BB613B681A69FB6903F013
:1018A80007039B0002FA03F3BA691343BB61FB69A0
:1018B800DA087B680832B96943F822107B681B682C
:1018C800BB61FB695B00032202FA03F3DB43BA69DD
:1018D8001340BB613B685B6803F00302FB695B0074
:1018E80002FA03F3BA691343BB617B68BA691A60E9
:1018F8003B685B6803F08053002B00F0B480002342
:10190800FB605F4A5E4B5B6C43F4804353645C4B03
:101918005B6C03F48043FB60FB685A4AFB699B08D5
:10192800023352F82330BB61FB6903F003039B00C9
:101938000F2202FA03F3DB43BA691340BB617B68E9
:10194800514A93422BD07B68504A934225D07B68FA
:101958004F4A93421FD07B684E4A934219D07B6806
:101968004D4A934213D07B684C4A93420DD07B6812
:101978004B4A934207D07B684A4A934201D10723D6
:101988000EE008230CE006230AE0052308E0042300
:1019980006E0032304E0022302E0012300E0002321
:1019A800FA6902F0030292009340BA691343BB61DB
:1019B8003449FB699B080233BA6941F823203A4B42
:1019C8001B68BB613B69DB43BA691340BB613B6879
:1019D8005B6803F48033002B03D0BA693B69134377
:1019E800BB61314ABB6913602F4B5B68BB613B69C4
:1019F800DB43BA691340BB613B685B6803F400339F
:101A0800002B03D0BA693B691343BB61264ABB6903
:101A18005360254B9B68BB613B69DB43BA69134044
:101A2800BB613B685B6803F48013002B03D0BA6981
:101A38003B691343BB611C4ABB6993601A4BDB6863
:101A4800BB613B69DB43BA691340BB613B685B68B8
:101A580003F40013002B03D0BA693B691343BB613D
:101A6800114ABB69D360FB690133FB61FB690F2B2A
:101A78007FF690AE00BF2437BD465DF8047B704703
:101A880000380240003801400000024000040240D3
:101A980000080240000C02400010024000140240FE
:101AA80000180240001C0240003C0140F0B58FB015
:101AB8000AAF78607B68002B01D101230FE17B68B6
:101AC8001B68BB607B6893F8BD33DBB2002B06D183
:101AD8007B68002283F8BC23786805F01FFD7B68CB
:101AE800032283F8BD23BB68DB6B03F48073002BF0
:101AF80002D17B6800221A617B681B68184602F0D5
:101B0800B0FC7B681B683B607E686D4606F110047C
:101B18000FCC0FC50FCC0FC594E8030085E8030070
:101B2800331D0ECB386802F087FB0346002B05D027
:101B38007B68022283F8BD230123D0E07B681B6801
:101B48000021184602F09EFC0023FB734AE0FA7B52
:101B580079681346DB009B1A9B000B443D33012236
:101B68001A70FA7B79681346DB009B1A9B000B44BA
:101B78003C33FA7B1A70FA7BFB7B98B27968134680
:101B8800DB009B1A9B000B44423302461A80FA7B07
:101B980079681346DB009B1A9B000B443F330022F5
:101BA8001A70FA7B79681346DB009B1A9B000B447A
:101BB800443300221A60FA7B79681346DB009B1ACB
:101BC8009B000B44483300221A60FA7B796813465D
:101BD800DB009B1A9B000B44503300221A60FB7BEE
:101BE8000133FB73FA7B7B685B689A42AFD30023AF
:101BF800FB7344E0FA7B79681346DB009B1A9B0071
:101C08000B4403F2FD1300221A70FA7B796813461D
:101C1800DB009B1A9B000B4403F5FE73FA7B1A70DA
:101C2800FA7B79681346DB009B1A9B000B4403F28E
:101C3800FF1300221A70FA7B79681346DB009B1A9F
:101C48009B000B4403F5017300221A60FA7B796844
:101C58001346DB009B1A9B000B4403F5027300221A
:101C68001A60FA7B79681346DB009B1A9B000B44C9
:101C780003F5047300221A60FB7B0133FB73FA7BC4
:101C88007B685B689A42B5D37B681B683B607E685B
:101C98006D4606F110040FCC0FC50FCC0FC594E8A4
:101CA800030085E80300331D0ECB386802F014FCEE
:101CB8000346002B05D07B68022283F8BD2301234D
:101CC8000DE07B68002283F838207B68012283F8C6
:101CD800BD237B681B68184603F094FC0023184654
:101CE8001437BD46F0BD80B584B000AF78607B681E
:101CF8001B68FB607B6893F8BC33012B01D102237E
:101D080020E07B68012283F8BC237B689B6A012B57
:101D180009D17B689B69012B05D0FB689B6B43F459
:101D28008032FB689A637B681B68184603F051FC95
:101D38007B681B68184602F083FB7B68002283F8E7
:101D4800BC23002318461037BD4680BD90B58DB022
:101D580000AF78607B681B683B623B6AFB617B680D
:101D68001B68184603F0FAFC0346002B40F0AA83D0
:101D78007B681B68184603F05EFC0346002B00F0E6
:101D8800A0837B681B68184603F055FC034603F0E4
:101D98000203022B07D17B681B687A6812685269B4
:101DA80002F002025A617B681B68184603F043FC84
:101DB800034603F01003102B61D17B681B687A6817
:101DC8001268926922F010029A613B6A1B6ABB6131
:101DD800BB6903F00F021346DB009B1A9B0003F557
:101DE800FC737A68134404337B61BB695B0C03F0B2
:101DF8000F03022B24D1BA6947F6F0731340002B66
:101E080035D07B69D968BB691B099BB2C3F30A0348
:101E18009BB21A46386A03F0AFFA7B69DA68BB6985
:101E28001B09C3F30A031A447B69DA607B699A6960
:101E3800BB691B09C3F30A031A447B699A6116E05C
:101E4800BB695B0C03F00F03062B10D17B6803F50D
:101E5800717308221946386A03F08EFA7B699A6909
:101E6800BB691B09C3F30A031A447B699A617B683F
:101E78001B687A681268926942F010029A617B685E
:101E88001B68184603F0D7FB034603F40023B3F599
:101E9800002F6ED100237B627B681B68184603F015
:101EA800DDFBB86262E0BB6A03F00103002B57D088
:101EB8007B681B687A6AD2B21146184603F002FCA6
:101EC80038613B6903F00103002B0CD07B6A5A018F
:101ED800FB69134403F530631A4601239360796A5A
:101EE800786800F0BFFD3B6903F00803002B0CD0B5
:101EF8007B6A5A01FB69134403F530631A460823C9
:101F08009360796A786800F0B9FE3B6903F01003C2
:101F1800002B08D07B6A5A01FB69134403F5306330
:101F28001A46102393603B6903F02003002B08D066
:101F38007B6A5A01FB69134403F530631A46202370
:101F480093603B6903F40053002B09D07B6A5A0164
:101F5800FB69134403F530631A464FF4005393604A
:101F68007B6A01337B62BB6A5B08BB62BB6A002B7E
:101F780099D17B681B68184603F05DFB034603F4A0
:101F88008023B3F5802F40F0C1807B681B6818461A
:101F980003F07EFBB86200237B62B3E0BB6A03F008
:101FA8000103002B00F0A8807B681B687A6AD2B214
:101FB8001146184603F0A4FB38613B6903F001039E
:101FC800002B58D07B6A03F00F03012202FA03F3B7
:101FD800FB60FB6903F500631946FB6903F50063C1
:101FE8005A6BFB68DB4313404B637B6A5A01FB69FE
:101FF800134403F510631A46012393607B681B6939
:10200800012B32D179687A6A1346DB009B1A9B0050
:102018000B444833196878687A6A1346DB009B1AC0
:102028009B00034444331B68194478687A6A134652
:10203800DB009B1A9B000344483319607B6A002B22
:1020480013D179687A6A1346DB009B1A9B000B440C
:1020580050331B68002B08D17B6818687B6803F530
:1020680071731A46012103F0ADFB7B6ADBB2194696
:10207800786805F0D4FA3B6903F00803002B08D010
:102088007B6A5A01FB69134403F510631A46082357
:1020980093603B6903F01003002B08D07B6A5A0158
:1020A800FB69134403F510631A46102393603B69D8
:1020B80003F04003002B08D07B6A5A01FB691344E4
:1020C80003F510631A46402393603B6903F002034B
:1020D800002B08D07B6A5A01FB69134403F510638F
:1020E8001A46022393603B6903F08003002B03D058
:1020F800796A786800F027FC7B6A01337B62BB6AE7
:102108005B08BB62BB6A002B7FF448AF7B681B6827
:10211800184603F090FA034603F00043B3F1004F6A
:1021280023D1FB6903F500631A46FB6903F50063D5
:102138005B6823F0010353607B6893F8F433012B49
:1021480008D17B68002283F8F4230021786800F026
:1021580033FE02E0786805F0DBFA7B681B687A6872
:102168001268526902F000425A617B681B6818467F
:1021780003F061FA034603F40063B3F5006F12D16C
:10218800FB6903F500639B6803F00103012B02D18F
:10219800786805F095FA7B681B687A681268526956
:1021A80002F400625A617B681B68184603F043FA20
:1021B800034603F48053B3F5805F40F0D280FB6997
:1021C80003F500631A46FB6903F500635B6823F0B7
:1021D800010353607B681B681021184602F0E2FA7D
:1021E8000023FB625AE0FB6A5A01FB69134403F5BA
:1021F80010631A464FF67F339360FB6A5A01FB69F6
:10220800134403F510631946FB6A5A01FB6913442A
:1022180003F510631B6823F400130B60FB6A5A0173
:10222800FB69134403F510631946FB6A5A01FB69FD
:10223800134403F510631B6843F000630B60FB6AEB
:102248005A01FB69134403F530631A464FF67F338E
:102258009360FB6A5A01FB69134403F5306319461E
:10226800FB6A5A01FB69134403F530631B6823F4C6
:1022780000130B60FB6A5A01FB69134403F53063D2
:102288001946FB6A5A01FB69134403F530631B685E
:1022980043F000630B60FB6A0133FB627B685A689A
:1022A800FB6A9A429FD8FB6903F500631A46FB69EB
:1022B80003F50063DB6943F00113D3617B681B6B93
:1022C800002B18D0FB6903F500631A46FB6903F578
:1022D8000063D3F8843043F00B03C2F88430FB6901
:1022E80003F500631A46FB6903F500635B6C43F072
:1022F8000B03536417E0FB6903F500631A46FB6997
:1023080003F500635B6943F4005343F02B03536107
:10231800FB6903F500631A46FB6903F500631B6953
:1023280043F00B031361FB6903F500631A46FB696D
:1023380003F500631B6823F4FE6313607B68186869
:102348007B681B69D9B27B6803F571731A4603F081
:1023580039FA7B681B687A681268526902F48052FD
:102368005A617B681B68184603F065F9034603F455
:102378000053B3F5005F24D17B681B68184603F04F
:10238800FBF97B681B68184602F06EFA03461A468A
:102398007B68DA607B681C6801F048F901467B6855
:1023A800DB68DBB21A46204601F0A8FF786805F022
:1023B8005EF97B681B687A681268526902F40052F9
:1023C8005A617B681B68184603F035F9034603F029
:1023D8000803082B0AD1786805F03BF97B681B686D
:1023E8007A681268526902F008025A617B681B68B1
:1023F800184603F020F9034603F48013B3F5801F51
:102408000FD100237B627B6ADBB21946786805F03E
:102418009FF97B681B687A681268526902F4801217
:102428005A617B681B68184603F005F9034603F4F4
:102438000013B3F5001F0FD100237B627B6ADBB268
:102448001946786805F072F97B681B687A68126823
:10245800526902F400125A617B681B68184603F03F
:10246800EAF8034603F08043B3F1804F0AD1786855
:1024780005F080F97B681B687A681268526902F077
:1024880080425A617B681B68184603F0D4F80346FB
:1024980003F00403042B15D17B681B685B68BB61E0
:1024A800BB6903F00403002B02D0786805F070F9CB
:1024B8007B681B687A6812685168BA690A435A606F
:1024C80000E000BF3437BD4690BD80B582B000AF94
:1024D80078600B46FB707B6893F8BC33012B01D105
:1024E800022313E07B68012283F8BC237B68FA7817
:1024F80083F838207B681B68FA781146184603F081
:1025080040F87B68002283F8BC230023184608376C
:10251800BD4680BD80B584B000AF786008461146DE
:102528001A460346FB700B463B801346BB700023DC
:10253800FB7297F90330002B0FDAFB7803F00F02D8
:102548001346DB009B1A9B0038337A681344043324
:10255800FB60FB6801225A700FE0FB7803F00F0262
:102568001346DB009B1A9B0003F5FC737A6813443F
:102578000433FB60FB6800225A70FB7803F00F03FA
:10258800DAB2FB681A703A88FB689A60FB68BA7816
:10259800DA70FB685B78002B04D0FB681B789AB272
:1025A800FB68DA80BB78022B02D1FB6800221A7123
:1025B8007B6893F8BC33012B01D102230EE07B68C2
:1025C800012283F8BC237B681B68F968184602F06F
:1025D80070F97B68002283F8BC23FB7A1846103711
:1025E800BD4680BD80B584B000AF78600B46FB70F7
:1025F80097F90330002B0FDAFB7803F00F0213462C
:10260800DB009B1A9B0038337A6813440433FB6061
:10261800FB6801225A700FE0FB7803F00F021346A3
:10262800DB009B1A9B0003F5FC737A6813440433A0
:10263800FB60FB6800225A70FB7803F00F03DAB2E4
:10264800FB681A707B6893F8BC33012B01D1022315
:102658000EE07B68012283F8BC237B681B68F9685D
:10266800184602F0B1F97B68002283F8BC230023E6
:1026780018461037BD4680BD80B586B000AFF860FB
:102688007A603B600B46FB72FB7A03F00F0213463D
:10269800DB009B1A9B0003F5FC73FA6813440433B0
:1026A8007B617B697A68DA607B693A685A617B6921
:1026B80000229A617B6900225A70FB7A03F00F03AB
:1026C800DAB27B691A70FB681B69012B02D17A6840
:1026D8007B691A61FB7A03F00F03002B09D1FB68B1
:1026E8001868FB681B69DBB21A46796902F0ACFC12
:1026F80008E0FB681868FB681B69DBB21A46796951
:1027080002F046FA002318461837BD4680BD80B44B
:1027180083B000AF78600B46FB70FB7803F00F02C4
:1027280079681346DB009B1A9B000B4403F505737D
:102738001B6818460C37BD465DF8047B704780B5AA
:1027480086B000AFF8607A603B600B46FB72FB7A9C
:1027580003F00F021346DB009B1A9B003833FA681C
:10276800134404337B617B697A68DA607B693A6871
:102778005A617B6900229A617B6901225A70FB7A4F
:1027880003F00F03DAB27B691A70FB681B69012B2F
:1027980002D17A687B691A61FB7A03F00F03002B78
:1027A80009D1FB681868FB681B69DBB21A467969AE
:1027B80002F04AFC08E0FB681868FB681B69DBB29A
:1027C8001A46796902F0E4F9002318461837BD461D
:1027D80080BD80B584B000AF78600B46FB70FB7895
:1027E80003F00F027B685B689A4201D9012350E02D
:1027F80097F90330002B0FDAFB7803F00F0213462A
:10280800DB009B1A9B0038337A6813440433FB605F
:10281800FB6801225A700DE0FA781346DB009B1A18
:102828009B0003F5FC737A6813440433FB60FB6870
:1028380000225A70FB6801229A70FB7803F00F039C
:10284800DAB2FB681A707B6893F8BC33012B01D1AC
:1028580002231EE07B68012283F8BC237B681B6887
:10286800F968184602F0B1FDFB7803F00F03002B5E
:102878000AD17B6818687B681B69D9B27B6803F545
:1028880071731A4602F09EFF7B68002283F8BC230E
:10289800002318461037BD4680BD80B584B000AF10
:1028A80078600B46FB70FB7803F00F027B685B686F
:1028B8009A4201D9012342E097F90330002B0FDA3D
:1028C800FB7803F00F021346DB009B1A9B0038339A
:1028D8007A6813440433FB60FB6801225A700FE0E6
:1028E800FB7803F00F021346DB009B1A9B0003F5ED
:1028F800FC737A6813440433FB60FB6800225A7047
:10290800FB6800229A70FB7803F00F03DAB2FB68C9
:102918001A707B6893F8BC33012B01D102230EE0B7
:102928007B68012283F8BC237B681B68F96818461A
:1029380002F0BDFD7B68002283F8BC230023184603
:102948001037BD4680BD80B58AB002AF7860396067
:102958007B681B687B617B693B613A681346DB00D7
:102968009B1A9B0038337A6813440433FB60FB6876
:102978009A69FB685B699A4201D901236DE0FB689B
:102988005A69FB689B69D31AFB61FB689A68FB6903
:102998009A4202D2FB689B68FB61FB6903339B0880
:1029A800BB612BE0FB685A69FB689B69D31AFB6122
:1029B800FB689A68FB699A4202D2FB689B68FB61D4
:1029C800FB6903339B08BB61FB68D9683B68DAB2D3
:1029D800FB6998B27B681B69DBB200930346786990
:1029E80002F095FCFB68DA68FB691A44FB68DA6058
:1029F800FB689A69FB691A44FB689A613B685A014B
:102A08003B69134403F510639B699AB2BB699A4208
:102A180009D3FB689A69FB685B699A4203D2FB6831
:102A28005B69002BBED1FB685A69FB689B699A42B7
:102A380012D83B6803F00F03012202FA03F3BB60CC
:102A48003B6903F5006319463B6903F500635A6B5C
:102A5800BB68DB4313404B63002318462037BD4651
:102A680080BD000080B586B000AF786039607B68B3
:102A78001B687B617B693B617B693C3304331B6862
:102A8800FB603B685A013B69134403F530639B685C
:102A9800BB607B681B69012B40F0A080BB6803F01A
:102AA8000803002B15D0FB68724A934240F2DD8080
:102AB800BB6803F40043002B00F0D7803B685A0141
:102AC8003B69134403F530631A464FF4004393609F
:102AD800CBE0BB6803F02003002B09D03B685A0108
:102AE8003B69134403F530631A4620239360BCE026
:102AF800BB6803F02803002B40F0B780FB685D4AF1
:102B080093420FD9BB6803F40043002B0AD03B68FB
:102B18005A013B69134403F530631A464FF40043E6
:102B28009360A2E079683A681346DB009B1A9B0021
:102B38000B4403F501731A683B6859013B690B4460
:102B480003F530631B69C3F31203D11A78683A6836
:102B58001346DB009B1A9B00034403F505731960B9
:102B680079683A681346DB009B1A9B000B4403F50F
:102B78000273196878683A681346DB009B1A9B0051
:102B8800034403F501731B68194478683A681346CF
:102B9800DB009B1A9B00034403F5027319603B6832
:102BA800002B14D179683A681346DB009B1A9B0006
:102BB8000B4403F504731B68002B08D17B68186865
:102BC8007B6803F571731A46012102F0FBFD3B682F
:102BD800DBB21946786804F007FD46E0FB68264A30
:102BE800934224D1BB6803F40043002B0AD03B680E
:102BF8005A013B69134403F530631A464FF4004306
:102C0800936032E0BB6803F02003002B08D03B68D8
:102C18005A013B69134403F530631A462023936035
:102C28003B68DBB21946786804F0DEFC1DE03B68BF
:102C3800002B14D179683A681346DB009B1A9B0075
:102C48000B4403F504731B68002B08D17B681868D4
:102C58007B6803F571731A46002102F0B3FD3B68E7
:102C6800DBB21946786804F0BFFC00231846183711
:102C7800BD4680BD0A30544F0A31544F80B586B0E6
:102C880000AF786039607B681B687B617B693B615A
:102C98007B693C3304331B68FB603B685A013B6922
:102CA800134403F530639B68BB60FB68154A934285
:102CB8000ED9BB6803F40043002B09D03B685A01C6
:102CC8003B69134403F530631A464FF4004393609D
:102CD800786804F077FCFB680A4A93420CD97B6851
:102CE8001B69012B08D17B6818687B6803F5717331
:102CF8001A46012102F066FD002318461837BD4622
:102D080080BD00BF0A30544F80B485B000AF7860F2
:102D18000B46FB7013463B807B681B685B6ABB6095
:102D2800FB78002B07D17B681B683A881104BA68C6
:102D38000A439A6228E07B681B689B6A1B0CBA6886
:102D48001344BB600023FB730DE07B681A68FB7BB0
:102D580040339B0013445B681B0CBA681344BB6088
:102D6800FB7B0133FB73FA7BFB78013B9A42ECD384
:102D78007B681968FB78013B3A881004BA680243FB
:102D880040339B000B445A60002318461437BD4655
:102D98005DF8047B704780B483B000AF78600B4661
:102DA8007B807B681B687A885A62002318460C3738
:102DB800BD465DF8047B704780B483B000AF78608F
:102DC8000B46FB7000BF0C37BD465DF8047B7047AF
:102DD80080B586B000AF78607B68002B01D10123F5
:102DE8005BE27B681B6803F00103002B75D0A34BE3
:102DF8009B6803F00C03042B0CD0A04B9B6803F0DA
:102E08000C03082B12D19D4B5B6803F48003B3F5C8
:102E1800800F0BD1994B1B6803F40033002B5BD058
:102E28007B685B68002B57D1012336E27B685B68BF
:102E3800B3F5803F06D1914A904B1B6843F4803329
:102E480013601DE07B685B68B3F5A02F0CD18B4A3B
:102E58008A4B1B6843F480231360884A874B1B689E
:102E680043F4803313600BE0844A844B1B6823F4DB
:102E780080331360814A814B1B6823F480231360DD
:102E88007B685B68002B13D0FEF738FB386108E0DD
:102E9800FEF734FB02463B69D31A642B01D903239E
:102EA800FBE1764B1B6803F40033002BF0D014E0F1
:102EB800FEF724FB386108E0FEF720FB02463B6979
:102EC800D31A642B01D90323E7E16C4B1B6803F485
:102ED8000033002BF0D100E000BF7B681B6803F0D3
:102EE8000203002B63D0654B9B6803F00C03002B97
:102EF8000BD0624B9B6803F00C03082B1CD15F4B73
:102F08005B6803F48003002B16D15C4B1B6803F04D
:102F18000203002B05D07B68DB68012B01D001235D
:102F2800BBE15649554B1B6823F0F8027B681B69C7
:102F3800DB0013430B603AE07B68DB68002B20D092
:102F48004F4B01221A60FEF7D9FA386108E0FEF704
:102F5800D5FA02463B69D31A022B01D903239CE117
:102F6800464B1B6803F00203002BF0D04349434B48
:102F78001B6823F0F8027B681B69DB0013430B60B6
:102F880015E03F4B00221A60FEF7B8FA386108E0F6
:102F9800FEF7B4FA02463B69D31A022B01D9032380
:102FA8007BE1364B1B6803F00203002BF0D17B68F2
:102FB8001B6803F00803002B30D07B685B69002B8B
:102FC80016D0304B01221A60FEF798FA386108E0F3
:102FD800FEF794FA02463B69D31A022B01D9032360
:102FE8005BE1264B5B6F03F00203002BF0D015E08A
:102FF800244B00221A60FEF781FA386108E0FEF7D8
:103008007DFA02463B69D31A022B01D9032344E116
:103018001A4B5B6F03F00203002BF0D17B681B682F
:1030280003F00403002B00F0A0800023FB75134B72
:103038001B6C03F08053002B0FD10023BB600F4A99
:103048000E4B1B6C43F0805313640C4B1B6C03F04A
:103058008053BB60BB680123FB750B4B1B6803F4F3
:103068008073002B21D1084A074B1B6843F48073F7
:103078001360FEF743FA386111E000BF00380240E0
:1030880000004742800E474200700040FEF736FAC3
:1030980002463B69D31A022B01D90323FDE0814B79
:1030A8001B6803F48073002BF0D07B689B68012BAE
:1030B80006D17D4A7C4B1B6F43F0010313671CE06C
:1030C8007B689B68052B0CD1774A774B1B6F43F0C5
:1030D80004031367744A744B1B6F43F001031367AF
:1030E8000BE0714A704B1B6F23F0010313676E4AA4
:1030F8006D4B1B6F23F0040313677B689B68002BE1
:1031080015D0FEF7FBF938610AE0FEF7F7F9024639
:103118003B69D31A41F28832934201D90323BCE0B8
:10312800614B1B6F03F00203002BEED014E0FEF797
:10313800E5F938610AE0FEF7E1F902463B69D31A7E
:1031480041F28832934201D90323A6E0564B1B6F04
:1031580003F00203002BEED1FB7D012B05D1524A6F
:10316800514B1B6C23F0805313647B689B69002BC5
:1031780000F092804C4B9B6803F00C03082B5CD04A
:103188007B689B69022B41D1484B00221A60FEF7ED
:10319800B5F9386108E0FEF7B1F902463B69D31A80
:1031A800022B01D9032378E03F4B1B6803F000731F
:1031B800002BF0D13C497B68DA697B681B6A1A43AB
:1031C8007B685B6A9B011A437B689B6A5B08013BCF
:1031D8001B041A437B68DB6A1B0613434B60334BA3
:1031E80001221A60FEF78AF9386108E0FEF786F9CD
:1031F80002463B69D31A022B01D903234DE02A4B1F
:103208001B6803F00073002BF0D045E0274B002229
:103218001A60FEF773F9386108E0FEF76FF90246A5
:103228003B69D31A022B01D9032336E01E4B1B68D6
:1032380003F00073002BF0D12EE07B689B69012B13
:1032480001D1012329E0184B5B68FB60FB6803F49C
:1032580080027B68DB699A421CD1FB6803F03F025D
:103268007B681B6A9A4215D1FA6847F6C073134007
:103278007A68526A93420DD1FB6803F440327B6846
:103288009B6A9A4206D1FB6803F070627B68DB6A2E
:103298009A4201D0012300E0002318461837BD46A2
:1032A80080BD00BF00700040003802406000474207
:1032B80080B584B000AF786039607B68002B01D19D
:1032C8000123CCE0684B1B6803F00F023B689A426D
:1032D8000CD2654B3A68D2B21A70634B1B6803F084
:1032E8000F023B689A4201D00123B8E07B681B6853
:1032F80003F00203002B20D07B681B6803F0040353
:10330800002B05D0594A594B9B6843F4E05393600E
:103318007B681B6803F00803002B05D0534A534B06
:103328009B6843F4604393605049504B9B6823F07B
:10333800F0027B689B6813438B607B681B6803F013
:103348000103002B44D07B685B68012B07D1474BF6
:103358001B6803F40033002B19D101237FE07B683D
:103368005B68022B03D07B685B68032B07D13F4B5C
:103378001B6803F00073002B09D101236FE03B4B5E
:103388001B6803F00203002B01D1012367E03749D2
:10339800364B9B6823F003027B685B6813438B60A2
:1033A800FEF7ACF8F8600AE0FEF7A8F80246FB68FA
:1033B800D31A41F28832934201D903234FE02B4BB1
:1033C8009B6803F00C027B685B689B009A42EBD118
:1033D800254B1B6803F00F023B689A420CD9224B1D
:1033E8003A68D2B21A70204B1B6803F00F023B6890
:1033F8009A4201D0012332E07B681B6803F0040382
:10340800002B08D01949194B9B6823F4E0527B68BC
:10341800DB6813438B607B681B6803F00803002B91
:1034280009D01249114B9B6823F460427B681B69E1
:10343800DB0013438B6000F021F801460B4B9B68BF
:103448001B0903F00F030A4AD35C21FA03F3094A64
:103458001360094B1B681846FEF70CF80023184642
:103468001037BD4680BD00BF003C02400038024016
:10347800F07D000800000020040000202DE9F04F36
:103488008FB000AF0023FB6200237B630023BB6285
:1034980000233B63624B9B6803F00C03042B07D0AB
:1034A800082B08D0002B40F0B2805E4B3B63B1E0A4
:1034B8005D4B3B63AEE05A4B5B6803F03F03FB6236
:1034C800574B5B6803F48003002B4ED0544B5B686A
:1034D8009B094FF0000440F2FF114FF0000201EA8F
:1034E800030102EA04020B46144660017862786A16
:1034F80040EAD36078625B013B62D7E908345B1A23
:1035080064EB02044FEA841949EA93694FEA831885
:10351800B8EB030869EB04094FEAC903FB61FB69CF
:1035280043EA5873FB614FEAC803BB61D7E90689D0
:1035380018EB010849EB02094FEA49237B617B69D3
:1035480043EAD8537B614FEA48233B61D7E90489B2
:1035580040464946FB6A4FF000041A462346FDF7E9
:103568002BFA03460C467B6343E02D4B5B689B09B3
:103578004FF0000440F2FF114FF0000201EA03018E
:1035880002EA04020B4614466001F860F86840EA53
:10359800D360F8605B01BB60D7E902345B1A64EB67
:1035A8000204A60146EA93669D01ED1A66EB04063D
:1035B800F3007B607B6843EA55737B60EB003B60FC
:1035C80097E860006D1846EB02064FEA862B4BEA37
:1035D800955B4FEA852A55465E4628463146FB6A82
:1035E8004FF000041A462346FDF7E6F903460C4659
:1035F8007B630B4B5B681B0C03F0030301335B001D
:10360800BB627A6BBB6AB2FBF3F33B6302E0054B28
:103618003B6300BF3B6B18463C37BD46BDE8F08FA7
:10362800003802400024F40000127A0080B400AF91
:10363800034B1B681846BD465DF8047B704700BF06
:103648000000002080B582B000AF78607B68002B56
:1036580001D101231DE07B6893F83D30DBB2002BDC
:1036680006D17B68002283F83C207868FDF70AFEC3
:103678007B68022283F83D207B681A687B680433E4
:103688001946104600F0FAF97B68012283F83D20BC
:10369800002318460837BD4680BD80B582B000AF0C
:1036A80078607B68002B01D101231DE07B6893F8CB
:1036B8003D30DBB2002B06D17B68002283F83C202A
:1036C800786800F015F87B68022283F83D207B6853
:1036D8001A687B6804331946104600F0CFF97B68F6
:1036E800012283F83D20002318460837BD4680BDD7
:1036F80080B483B000AF786000BF0C37BD465DF87A
:10370800047B704780B584B000AF786039607B680F
:103718001B6801223968184600F09AFC7B681B6810
:10372800154A934204D07B681B68144A934201D11E
:10373800012300E00023002B07D07B681B687A6810
:103748001268526C42F400425A647B681B689B689A
:1037580003F00703FB60FB68062B07D07B681B6838
:103768007A681268126842F001021A60002318464B
:103778001037BD4680BD00BF000001400004014075
:1037880080B584B000AFF860B9607A60FB6893F8E0
:103798003C30012B01D10223B4E0FB68012283F8FD
:1037A8003C20FB68022283F83D207B680C2B00F24A
:1037B8009F8001A252F823F0F5370008F938000875
:1037C800F9380008F938000835380008F9380008D1
:1037D800F9380008F938000877380008F93800087F
:1037E800F9380008F9380008B7380008FB681B6882
:1037F800B968184600F0E2F9FB681B68FA681268B5
:10380800926942F008029A61FB681B68FA681268BC
:10381800926922F004029A61FB681B68FA681268D0
:103828009169BA6812690A439A6162E0FB681B6889
:10383800B968184600F032FAFB681B68FA68126823
:10384800926942F400629A61FB681B68FA68126820
:10385800926922F480629A61FB681B68FA681268B0
:103868009169BA68126912020A439A6141E0FB68D9
:103878001B68B968184600F087FAFB681B68FA6885
:103888001268D26942F00802DA61FB681B68FA68BC
:103898001268D26922F00402DA61FB681B68FA68D0
:1038A8001268D169BA6812690A43DA6121E0FB68D3
:1038B8001B68B968184600F0DBFAFB681B68FA68F1
:1038C8001268D26942F40062DA61FB681B68FA6820
:1038D8001268D26922F48062DA61FB681B68FA68B0
:1038E8001268D169BA68126912020A43DA6100E003
:1038F80000BFFB68012283F83D20FB68002283F8A3
:103908003C20002318461037BD4680BD80B584B0E2
:1039180000AF786039607B6893F83C30012B01D1A7
:103928000223A6E07B68012283F83C207B68022200
:1039380083F83D207B681B689B68FB60FB6823F06D
:103948007703FB60FB6823F47F43FB607B681B689D
:10395800FA689A603B681B68402B67D0402B0BD8ED
:10396800102B73D0102B02D8002B6FD078E0202BAF
:103978006CD0302B6AD073E0702B0DD0702B04D82C
:10398800502B33D0602B41D06AE0B3F5805F66D00E
:10399800B3F5005F17D063E07B6818683B689968E7
:1039A8003B685A683B68DB6800F032FB7B681B6841
:1039B8009B68FB60FB6843F07703FB607B681B68D0
:1039C800FA689A604CE07B6818683B6899683B68BD
:1039D8005A683B68DB6800F01BFB7B681B687A68E9
:1039E8001268926842F480429A6039E07B681868ED
:1039F8003B6859683B68DB681A4600F08FFA7B68B9
:103A08001B685021184600F0E8FA29E07B6818681E
:103A18003B6859683B68DB681A4600F0AEFA7B6879
:103A28001B686021184600F0D8FA19E07B6818680E
:103A38003B6859683B68DB681A4600F06FFA7B6898
:103A48001B684021184600F0C8FA09E07B681A682C
:103A58003B681B681946104600F0BFFA00E000BF3B
:103A68007B68012283F83D207B68002283F83C2094
:103A7800002318461037BD4680BD000080B485B0CD
:103A880000AF786039607B681B68FB607B68404AE0
:103A9800934213D07B68B3F1804F0FD07B683D4AC7
:103AA80093420BD07B683C4A934207D07B683B4AE1
:103AB800934203D07B683A4A934208D1FB6823F0CB
:103AC8007003FB603B685B68FA681343FB607B68C4
:103AD8002F4A93422BD07B68B3F1804F27D07B6865
:103AE8002C4A934223D07B682B4A93421FD07B6891
:103AF8002A4A93421BD07B68294A934217D07B6895
:103B0800284A934213D07B68274A93420FD07B6898
:103B1800264A93420BD07B68254A934207D07B689C
:103B2800244A934203D07B68234A934208D1FB6816
:103B380023F44073FB603B68DB68FA681343FB605F
:103B4800FB6823F080023B685B691343FB607B687A
:103B5800FA681A603B689A687B68DA623B681A6898
:103B68007B689A627B680A4A934203D07B680C4A56
:103B7800934203D13B681A697B681A637B68012208
:103B88005A6100BF1437BD465DF8047B704700BF1B
:103B9800000001400004004000080040000C004004
:103BA8000004014000400140004401400048014039
:103BB80000180040001C00400020004080B487B07E
:103BC80000AF786039607B681B6A23F001027B686C
:103BD8001A627B681B6A7B617B685B683B617B68F8
:103BE8009B69FB60FB6823F07003FB60FB6823F0B4
:103BF8000303FB603B681B68FA681343FB607B693F
:103C080023F002037B613B689B687A6913437B61FD
:103C18007B68204A934203D07B681F4A93420CD1A9
:103C28007B6923F008037B613B68DB687A6913438F
:103C38007B617B6923F004037B617B68154A9342AF
:103C480003D07B68144A934211D13B6923F48073F3
:103C58003B613B6923F400733B613B685B693A69EC
:103C680013433B613B689B693A6913433B617B683B
:103C78003A695A607B68FA689A613B685A687B6857
:103C88005A637B687A691A6200BF1C37BD465DF8C3
:103C9800047B7047000001400004014080B487B0F5
:103CA80000AF786039607B681B6A23F010027B687C
:103CB8001A627B681B6A7B617B685B683B617B6817
:103CC8009B69FB60FB6823F4E043FB60FB6823F41B
:103CD8004073FB603B681B681B02FA681343FB6078
:103CE8007B6923F020037B613B689B681B017A6931
:103CF80013437B617B68224A934203D07B68214A45
:103D080093420DD17B6923F080037B613B68DB68BC
:103D18001B017A6913437B617B6923F040037B6154
:103D28007B68174A934203D07B68164A934213D1A3
:103D38003B6923F480633B613B6923F400633B6187
:103D48003B685B699B003A6913433B613B689B692D
:103D58009B003A6913433B617B683A695A607B6808
:103D6800FA689A613B685A687B689A637B687A69E3
:103D78001A6200BF1C37BD465DF8047B704700BF60
:103D8800000001400004014080B487B000AF7860B3
:103D980039607B681B6A23F480727B681A627B68CF
:103DA8001B6A7B617B685B683B617B68DB69FB60E6
:103DB800FB6823F07003FB60FB6823F00303FB60E0
:103DC8003B681B68FA681343FB607B6923F4007344
:103DD8007B613B689B681B027A6913437B617B6844
:103DE800214A934203D07B68204A93420DD17B69D4
:103DF80023F400637B613B68DB681B027A69134329
:103E08007B617B6923F480637B617B68164A9342FC
:103E180003D07B68154A934213D13B6923F480533E
:103E28003B613B6923F400533B613B685B691B01C1
:103E38003A6913433B613B689B691B013A69134329
:103E48003B617B683A695A607B68FA68DA613B686B
:103E58005A687B68DA637B687A691A6200BF1C3724
:103E6800BD465DF8047B7047000001400004014036
:103E780080B487B000AF786039607B681B6A23F430
:103E880080527B681A627B681B6A3B617B685B684F
:103E98007B617B68DB69FB60FB6823F4E043FB60C4
:103EA800FB6823F44073FB603B681B681B02FA68DD
:103EB8001343FB603B6923F400533B613B689B68F9
:103EC8001B033A6913433B617B68124A934203D050
:103ED8007B68114A934209D17B6923F480437B6153
:103EE8003B685B699B017A6913437B617B687A69EC
:103EF8005A607B68FA68DA613B685A687B681A64BA
:103F08007B683A691A6200BF1C37BD465DF8047BBE
:103F1800704700BF000001400004014080B487B032
:103F280000AFF860B9607A60FB681B6A7B61FB6868
:103F38001B6A23F00102FB681A62FB689B693B61FC
:103F48003B6923F0F0033B617B681B013A6913432B
:103F58003B617B6923F00A037B617A69BB68134381
:103F68007B61FB683A699A61FB687A691A6200BFEB
:103F78001C37BD465DF8047B704780B487B000AF3E
:103F8800F860B9607A60FB681B6A23F01002FB686E
:103F98001A62FB689B697B61FB681B6A3B617B69F2
:103FA80023F470437B617B681B037A6913437B614D
:103FB8003B6923F0A0033B61BB681B013A691343CB
:103FC8003B61FB687A699A61FB683A691A6200BFCB
:103FD8001C37BD465DF8047B704780B485B000AFE0
:103FE800786039607B689B68FB60FB6823F070032E
:103FF800FB603A68FB68134343F00703FB607B6888
:10400800FA689A6000BF1437BD465DF8047B7047B4
:1040180080B487B000AFF860B9607A603B60FB6835
:104028009B687B617B6923F47F437B613B681A0251
:104038007B681A43BB6813437A6913437B61FB6847
:104048007A699A6000BF1C37BD465DF8047B7047EB
:1040580080B487B000AFF860B9607A60BB6803F0DD
:104068001F03012202FA03F37B61FB681A6A7B696A
:10407800DB431A40FB681A62FB681A6ABB6803F0E4
:104088001F03796801FA03F31A43FB681A6200BF39
:104098001C37BD465DF8047B7047000080B485B0CE
:1040A80000AF786039607B6893F83C30012B01D110
:1040B80002235AE07B68012283F83C207B680222B5
:1040C80083F83D207B681B685B68FB607B681B6826
:1040D8009B68BB60FB6823F07003FB603B681B6850
:1040E800FA681343FB607B681B68FA685A607B6850
:1040F8001B68214A934222D07B681B68B3F1804F2A
:104108001DD07B681B681D4A934218D07B681B68CA
:104118001B4A934213D07B681B681A4A93420ED0FD
:104128007B681B68184A934209D07B681B68174A4A
:10413800934204D07B681B68154A93420CD1BB6834
:1041480023F08003BB603B685B68BA681343BB60BD
:104158007B681B68BA689A607B68012283F83D20F7
:104168007B68002283F83C20002318461437BD469C
:104178005DF8047B704700BF000001400004004068
:1041880000080040000C00400004014000400140CD
:104198000018004080B485B000AF78603960002313
:1041A800FB607B6893F83C30012B01D102233DE092
:1041B8007B68012283F83C20FB6823F0FF023B6800
:1041C800DB681343FB60FB6823F440723B689B6821
:1041D8001343FB60FB6823F480623B685B6813430E
:1041E800FB60FB6823F400623B681B681343FB60B9
:1041F800FB6823F480523B681B691343FB60FB6830
:1042080023F400523B685B691343FB60FB6823F4AB
:1042180080423B68DB691343FB607B681B68FA6874
:104228005A647B68002283F83C2000231846143720
:10423800BD465DF8047B704784B080B584B000AF9C
:10424800786007F11C0080E80E003B6B012B22D13F
:104258007B689B6B23F480327B689A637B68DB689E
:1042680023F4840323F040037A68D3607B68DB6817
:1042780023F440127B68DA60FB6C012B05D17B6864
:10428800DB6843F480127B68DA60786801F0FCFA36
:104298000346FB731AE07B68DB6843F040027B68E7
:1042A800DA60786801F0F0FA0346FB733B6C002B88
:1042B80006D17B689B6B43F480327B689A6305E088
:1042C8007B689B6B23F480327B689A63BB6A012B03
:1042D8000BD17B689B6843F006027B689A607B6819
:1042E8009B6843F020027B689A60FB7B1846103776
:1042F800BD46BDE8804004B07047000080B487B078
:1043080000AFF860B9601346FB71FB79022B65D1E9
:10431800BB68414A934206D9BB68404A934202D8D7
:104328000F237B6162E0BB683C4A934206D9BB68B5
:104338003B4A934202D80E237B6157E0BB68384A58
:10434800934206D9BB68374A934202D80D237B6152
:104358004CE0BB68334A934206D9BB68324A934261
:1043680002D80C237B6141E0BB682F4A934206D9EF
:10437800BB682E4A934202D80B237B6136E0BB68A8
:104388002A4A934206D9BB68294A934202D80A238B
:104398007B612BE0BB68264A934206D9BB68254A55
:1043A800934202D809237B6120E0BB68214A9342EB
:1043B80006D9BB68204A934202D808237B6115E0DE
:1043C800BB681D4A934206D9BB681C4A934202D86F
:1043D80007237B610AE006237B6107E0FB79002B5A
:1043E80002D109237B6101E009237B61FB68DB685B
:1043F80023F47052FB68DA60FB68DA687B699B0219
:1044080003F470531A43FB68DA60002318461C371C
:10441800BD465DF8047B7047BFACD800BFE1E4003F
:10442800FF23F4007F7306019F491A01FF2C310115
:104438003FA44C01FF356E011FABA601FF47E80101
:1044480080B483B000AF78607B689B6843F001025A
:104458007B689A60002318460C37BD465DF8047BDC
:10446800704780B483B000AF78607B689B6823F0A6
:1044780001027B689A60002318460C37BD465DF838
:10448800047B704780B582B000AF78600B46FB7044
:104498007B68DB6823F0C0427B68DA60FB78012B1D
:1044A80006D17B68DB6843F000527B68DA600BE07A
:1044B800FB78002B06D17B68DB6843F080427B6881
:1044C800DA6001E0012303E03220FDF723F800233E
:1044D80018460837BD4680BD84B080B586B000AFA9
:1044E800786007F1240080E80E000023FB757B68E4
:1044F800FB6000233B6109E07A683B6940339B001D
:10450800134400225A603B6901333B613B690E2B1F
:10451800F2D9FB6C002B1DD1FB6803F500631A462A
:10452800FB6803F500635B6843F0020353607B6834
:104538009B6B43F400127B689A637B689B6B23F444
:1045480000227B689A637B689B6B23F480227B68DC
:104558009A630BE07B689B6B23F400127B689A6379
:104568007B689B6B43F400227B689A63FB6803F5C6
:1045780060631A4600231360FB6803F500631A465C
:10458800FB6803F500631B681360BB6B012B0CD140
:10459800FB6A002B04D10021786800F04BF908E091
:1045A8000121786800F046F903E00321786800F0FB
:1045B80041F91021786800F0F5F80346002B01D086
:1045C8000123FB75786800F013F90346002B01D02E
:1045D8000123FB75FB6803F500631A46002313618A
:1045E800FB6803F500631A4600235361FB6803F573
:1045F80000631A460023D36100233B6143E03B6913
:104608005A01FB68134403F510631B6803F0004369
:10461800B3F1004F18D13B69002B0AD13B695A010D
:10462800FB68134403F510631A464FF000631360E8
:1046380013E03B695A01FB68134403F510631A46FB
:104648004FF09043136008E03B695A01FB6813443C
:1046580003F510631A46002313603B695A01FB688F
:10466800134403F510631A46002313613B695A018A
:10467800FB68134403F510631A464FF67F339360C3
:104688003B6901333B617A6A3B699A42B7D8002398
:104698003B6143E03B695A01FB68134403F530630F
:1046A8001B6803F00043B3F1004F18D13B69002B9E
:1046B8000AD13B695A01FB68134403F530631A4673
:1046C8004FF00063136013E03B695A01FB68134421
:1046D80003F530631A464FF09043136008E03B69D6
:1046E8005A01FB68134403F530631A46002313602C
:1046F8003B695A01FB68134403F530631A460023EB
:1047080013613B695A01FB68134403F530631A4689
:104718004FF67F3393603B6901333B617A6A3B69AB
:104728009A42B7D8FB6803F500631A46FB6803F59D
:1047380000631B6923F4807313617B6800229A610C
:104748007B686FF080425A613B6B002B05D17B6818
:104758009B6943F010027B689A617B689A69104BE9
:1047680013437A689361FB6B002B05D07B689B69C8
:1047780043F008027B689A61FB6C012B07D17B68C8
:104788009B6943F0804343F004037A689361FB7D9F
:1047980018461837BD46BDE8804004B0704700BFD2
:1047A80000383C8080B485B000AF78603960002361
:1047B800FB603B689B0143F020027B681A61FB6841
:1047C8000133FB60FB68094A934201D9032306E0E1
:1047D8007B681B6903F02003202BF0D000231846C8
:1047E8001437BD465DF8047B704700BF400D0300D9
:1047F80080B485B000AF78600023FB607B6810222E
:104808001A61FB680133FB60FB68094A934201D9CE
:10481800032306E07B681B6903F01003102BF0D01C
:10482800002318461437BD465DF8047B704700BF67
:10483800400D030080B485B000AF78600B46FB7074
:104848007B68FB60FB6803F500631946FB6803F5AA
:1048580000631A68FB7813430B600023184614376B
:10486800BD465DF8047B704780B487B000AF7860C0
:104878007B683B613B6903F500639B6803F00603B3
:10488800FB60FB68002B02D10023FB750AE0FB6884
:10489800022B02D0FB68062B02D10223FB7501E034
:1048A8000F23FB75FB7D18461C37BD465DF8047B5E
:1048B800704780B485B000AF786039607B68FB6072
:1048C8003B681B78BB603B685B78012B3CD1FB687D
:1048D80003F500631846FB6803F50063DA693B6873
:1048E8001B7803F00F03012101FA03F39BB2134372
:1048F800C361BB685A01FB68134403F510631B6866
:1049080003F40043002B58D1BB685A01FB681344D9
:1049180003F510631846BB685A01FB68134403F596
:1049280010631A683B689B68C3F30A013B68DB782D
:104938009B041943BB689B050B43134343F0805307
:1049480043F40043036038E0FB6803F5006318464E
:10495800FB6803F50063DA693B681B7803F00F0313
:10496800012101FA03F31B041343C361BB685A0115
:10497800FB68134403F530631B6803F40043002B02
:104988001BD1BB685A01FB68134403F53063184612
:10499800BB685A01FB68134403F530631A683B6827
:1049A8009B68C3F30A013B68DB789B040B43134302
:1049B80043F0805343F40043036000231846143740
:1049C800BD465DF8047B704780B485B000AF786061
:1049D80039607B68FB603B681B78BB603B685B7831
:1049E800012B65D1BB685A01FB68134403F51063BA
:1049F8001B6803F00043B3F1004F21D1BB685A0193
:104A0800FB68134403F510631946BB685A01FB6839
:104A1800134403F510631B6843F000630B60BB6825
:104A28005A01FB68134403F510631946BB685A0121
:104A3800FB68134403F510631B6843F080430B6065
:104A4800FB6803F500631846FB6803F50063DA6B3F
:104A58003B681B7803F00F03012101FA03F39BB2B3
:104A6800DB431340C363FB6803F500631846FB6828
:104A780003F50063DA693B681B7803F00F03012133
:104A880001FA03F39BB2DB431340C361BB685A01CD
:104A9800FB68134403F510631946BB685A01FB68A9
:104AA800134403F510631A68374B13400B6064E036
:104AB800BB685A01FB68134403F530631B6803F0B5
:104AC8000043B3F1004F21D1BB685A01FB6813447E
:104AD80003F530631946BB685A01FB68134403F5B4
:104AE80030631B6843F000630B60BB685A01FB68C6
:104AF800134403F530631946BB685A01FB68134435
:104B080003F530631B6843F080430B60FB6803F5D3
:104B180000631846FB6803F50063DA6B3B681B7893
:104B280003F00F03012101FA03F31B04DB431340D5
:104B3800C363FB6803F500631846FB6803F500636D
:104B4800DA693B681B7803F00F03012101FA03F3CC
:104B58001B04DB431340C361BB685A01FB68134461
:104B680003F530631946BB685A01FB68134403F523
:104B780030631A68054B13400B600023184614373E
:104B8800BD465DF8047B7047007833EC0078F3EF9E
:104B980080B58AB002AFF860B9601346FB71FB6854
:104BA800FB61BB681B78BB61BB685B78012B40F07D
:104BB8006C81BB685B69002B35D1BB695A01FB6905
:104BC800134403F510631946BB695A01FB69134482
:104BD80003F510631B6923F0FF5323F4C0130B6123
:104BE800BB695A01FB69134403F510631946BB6995
:104BF8005A01FB69134403F510631B6943F400234E
:104C08000B61BB695A01FB69134403F5106319462C
:104C1800BB695A01FB69134403F510631B69DB0C7C
:104C2800DB040B617AE0BB695A01FB69134403F5A5
:104C380010631946BB695A01FB69134403F51063F5
:104C48001B69DB0CDB040B61BB695A01FB6913446C
:104C580003F510631946BB695A01FB69134403F550
:104C680010631B6923F0FF5323F4C0130B61BB6966
:104C78005A01FB69134403F510631846BB695A01CE
:104C8800FB69134403F510631A69BB685969BB686B
:104C98009B680B44591EBB689B68B1FBF3F3D904AE
:104CA800A14B0B4013430361BB695A01FB691344D1
:104CB80003F510631946BB695A01FB69134403F5F0
:104CC80010631A69BB685B69C3F3120313430B6172
:104CD800BB68DB78012B21D1BB695A01FB691344FE
:104CE80003F510631946BB695A01FB69134403F5C0
:104CF80010631B6923F0C0430B61BB695A01FB6950
:104D0800134403F510631946BB695A01FB69134440
:104D180003F510631B6943F000530B61FB79012B0A
:104D28004ED1BB681B69002B09D0BB695A01FB69CE
:104D3800134403F510631A46BB681B695361BB68CB
:104D4800DB78012B2AD1FB6903F500639B6803F428
:104D58008073002B11D1BB695A01FB69134403F519
:104D680010631946BB695A01FB69134403F51063C4
:104D78001B6843F000530B6010E0BB695A01FB69E4
:104D8800134403F510631946BB695A01FB691344C0
:104D980003F510631B6843F080530B60BB695A012D
:104DA800FB69134403F510631946BB695A01FB6993
:104DB800134403F510631B6843F004430B603CE1A4
:104DC800BB695A01FB69134403F510631946BB69B3
:104DD8005A01FB69134403F510631B6843F004434D
:104DE8000B60BB68DB78012B16D0BB685B69002BB6
:104DF80000F02381FB6903F500631846FB6903F59E
:104E080000635A6BBB681B7803F00F03012101FA9A
:104E180003F31343436310E1FB6903F500639B68E5
:104E280003F48073002B11D1BB695A01FB69134449
:104E380003F510631946BB695A01FB69134403F56E
:104E480010631B6843F000530B6010E0BB695A0104
:104E5800FB69134403F510631946BB695A01FB69E2
:104E6800134403F510631B6843F080530B60BB6861
:104E7800D968BB681A78BB685B6998B2FB790093FC
:104E88000346F86800F043FAD7E0BB695A01FB69AA
:104E9800134403F530631946BB695A01FB6913448F
:104EA80003F530631B69DB0CDB040B61BB695A013A
:104EB800FB69134403F530631946BB695A01FB6962
:104EC800134403F530631B6923F0FF5323F4C01325
:104ED8000B61BB685B69002B28D1BB695A01FB6970
:104EE800134403F530631946BB695A01FB6913443F
:104EF80003F530631A69BB689B68C3F31203134355
:104F08000B61BB695A01FB69134403F53063194609
:104F1800BB695A01FB69134403F530631B6943F409
:104F280000230B6138E000BF0000F81FBB685A6916
:104F3800BB689B6813445A1EBB689B68B2FBF3F3BB
:104F4800FB82BB695A01FB69134403F530631846B9
:104F5800BB695A01FB69134403F530631A69FB8A7C
:104F6800D904384B0B4013430361BB695A01FB69F1
:104F7800134403F530631846BB695A01FB691344AF
:104F880003F530631A69BB689B68F98A01FB03F370
:104F9800C3F3120313430361FB79012B0DD1BB68E3
:104FA800DB68002B09D0BB695A01FB69134403F580
:104FB80030631A46BB68DB685361BB68DB78012B3A
:104FC8002AD1FB6903F500639B6803F48073002B07
:104FD80011D1BB695A01FB69134403F530631946C3
:104FE800BB695A01FB69134403F530631B6843F03E
:104FF80000530B6010E0BB695A01FB69134403F5C9
:1050080030631946BB695A01FB69134403F53063E1
:105018001B6843F080530B60BB695A01FB6913445A
:1050280003F530631946BB695A01FB69134403F55C
:1050380030631B6843F004430B6000231846203795
:10504800BD4680BD0000F81F80B487B000AFF8608F
:10505800B9601346FB71FB687B61BB681B783B61D9
:10506800BB685B78012B40F0D880BB685B69002B7C
:1050780035D13B695A017B69134403F5106319461E
:105088003B695A017B69134403F510631B6923F0DC
:10509800FF5323F4C0130B613B695A017B69134426
:1050A80003F5106319463B695A017B69134403F5FC
:1050B80010631B6943F400230B613B695A017B6948
:1050C800134403F5106319463B695A017B6913447D
:1050D80003F510631B69DB0CDB040B6152E03B69D1
:1050E8005A017B69134403F5106319463B695A0159
:1050F8007B69134403F510631B69DB0CDB040B614C
:105108003B695A017B69134403F5106319463B69EF
:105118005A017B69134403F510631B6923F0FF539D
:1051280023F4C0130B61BB685A69BB689B689A4239
:1051380003D9BB689A68BB685A613B695A017B69A5
:10514800134403F5106319463B695A017B691344FC
:1051580003F510631B6943F400230B613B695A0193
:105168007B69134403F5106319463B695A017B694F
:10517800134403F510631A69BB685B69C3F3120330
:1051880013430B61FB79012B1FD1BB681B69002BF3
:1051980009D03B695A017B69134403F510631A4629
:1051A800BB681B6953613B695A017B69134403F56A
:1051B800106319463B695A017B69134403F5106370
:1051C8001B6843F004430B609AE03B695A017B6912
:1051D800134403F5106319463B695A017B6913446C
:1051E80003F510631B6843F004430B60BB685B69FD
:1051F800002B00F085807B6903F5006318467B6906
:1052080003F500635A6BBB681B7803F00F03012199
:1052180001FA03F31343436372E03B695A017B6964
:10522800134403F5306319463B695A017B691344FB
:1052380003F530631B69DB0CDB040B613B695A0126
:105248007B69134403F5306319463B695A017B694E
:10525800134403F530631B6923F0FF5323F4C01391
:105268000B61BB685B69002B03D0BB689A68BB689D
:105278005A613B695A017B69134403F53063194647
:105288003B695A017B69134403F530631B6943F496
:1052980000230B613B695A017B69134403F53063B2
:1052A80019463B695A017B69134403F530631A694F
:1052B800BB689B68C3F3120313430B61FB79012B93
:1052C8000DD1BB68DB68002B09D03B695A017B69AB
:1052D800134403F530631A46BB68DB6853613B69C6
:1052E8005A017B69134403F5306319463B695A0137
:1052F8007B69134403F530631B6843F004430B6078
:10530800002318461C37BD465DF8047B704780B4FF
:1053180089B000AFF860B96011461A460B46FB71B8
:105328001346BB80FB687B61BB68FB6197F828303C
:10533800002B1AD1BB8803339B083B610023BB6158
:105348000FE0FB791A037B69134403F580531A466F
:10535800FB691B681360FB690433FB61BB6901339C
:10536800BB61BA693B699A42EBD3002318462437DC
:10537800BD465DF8047B704780B489B000AFF86023
:10538800B9601346FB80FB687B61BB68FB61FB88E7
:1053980003339B083B610023BB610BE07B6903F58A
:1053A80080531A68FB691A60FB690433FB61BB69A7
:1053B8000133BB61BA693B699A42EFD3FB6918466E
:1053C8002437BD465DF8047B704780B485B000AFD4
:1053D800786039607B68FB603B681B78BB603B6822
:1053E8005B78012B2ED1BB685A01FB68134403F587
:1053F80010631B68002B13DBBB68002B10D0BB6845
:105408005A01FB68134403F510631946BB685A0137
:10541800FB68134403F510631B6823F080430B609B
:10542800BB685A01FB68134403F510631946BB684F
:105438005A01FB68134403F510631B6843F4001317
:105448000B602DE0BB685A01FB68134403F5306319
:105458001B68002B13DBBB68002B10D0BB685A01FC
:10546800FB68134403F530631946BB685A01FB68AF
:10547800134403F530631B6823F080430B60BB685B
:105488005A01FB68134403F530631946BB685A0197
:10549800FB68134403F530631B6843F400130B6087
:1054A800002318461437BD465DF8047B704780B466
:1054B80085B000AF786039607B68FB603B681B781B
:1054C800BB603B685B78012B2AD1BB685A01FB683B
:1054D800134403F510631946BB685A01FB6813446B
:1054E80003F510631B6823F400130B603B68DB783B
:1054F800032B03D03B68DB78022B3BD1BB685A01F6
:10550800FB68134403F510631946BB685A01FB682E
:10551800134403F510631B6843F080530B6029E0C4
:10552800BB685A01FB68134403F530631946BB682E
:105538005A01FB68134403F530631B6823F4001316
:105548000B603B68DB78032B03D03B68DB78022BCE
:1055580010D1BB685A01FB68134403F53063194640
:10556800BB685A01FB68134403F530631B6843F0BA
:1055780080530B60002318461437BD465DF8047B42
:10558800704780B485B000AF78600B46FB707B68CD
:10559800FB60FB6803F500631A46FB6803F50063CC
:1055A8001B6823F4FE631360FB6803F50063194668
:1055B800FB6803F500631A68FB781B0103F4FE63BC
:1055C80013430B60002318461437BD465DF8047B6F
:1055D800704780B584B000AF78607B68FB60FB687B
:1055E80003F500631A46FB6803F500635B6823F064
:1055F800020353600320FBF78DFF00231846103782
:10560800BD4680BD80B584B000AF78607B68FB6024
:10561800FB6803F500631A46FB6803F500635B68E3
:1056280043F0020353600320FBF774FF002318467E
:105638001037BD4680BD80B485B000AF78607B6808
:105648005B69FB607B689B69FA681340FB60FB68D9
:1056580018461437BD465DF8047B704780B485B0A2
:1056680000AF78607B68FB60FB6803F500639B69AB
:10567800BB60FB6803F50063DB69BA681340BB6075
:10568800BB681B0C18461437BD465DF8047B704791
:1056980080B485B000AF78607B68FB60FB6803F579
:1056A80000639B69BB60FB6803F50063DB69BA684C
:1056B8001340BB60BB689BB218461437BD465DF803
:1056C800047B704780B485B000AF78600B46FB70F0
:1056D8007B68FB60FB785A01FB68134403F5306371
:1056E8009B68BB60FB6803F500635B69BA6813409D
:1056F800BB60BB6818461437BD465DF8047B70472D
:1057080080B487B000AF78600B46FB707B687B6124
:105718007B6903F500631B693B617B6903F50063E3
:105728005B6BFB60FB7803F00F03FA6822FA03F364
:10573800DB01DBB23A6913433B61FB785A017B69B1
:10574800134403F510639A683B691340BB60BB6858
:1057580018461C37BD465DF8047B704780B483B09B
:1057680000AF78607B685B6903F0010318460C376B
:10577800BD465DF8047B704780B485B000AF7860A3
:105788007B68FB60FB6803F510631A46FB6803F54A
:1057980010631B6823F4FF6323F007031360FB689F
:1057A80003F500631A46FB6803F500635B6843F47E
:1057B80080735360002318461437BD465DF8047B98
:1057C8007047000080B487B000AFF8600B467A607D
:1057D800FB72FB687B61FB683C3304331B683B61ED
:1057E8003B69284A93420AD97B6903F530631B68F1
:1057F80003F00043B3F1004F01D100233BE07B6984
:1058080003F530631A46002313617B6903F530639F
:105818001A467B6903F530631B6943F4002313615F
:105828007B6903F530631A467B6903F530631B69AE
:1058380043F0180313617B6903F530631A467B69EB
:1058480003F530631B6943F0C0431361FB7A012BF6
:1058580010D17B6903F530631A467B6853617B6915
:1058680003F530631A467B6903F530631B6843F020
:1058780080231360002318461C37BD465DF8047B5F
:10588800704700BF0A30544F80B485B000AF7860CD
:105898000023FB60FB680133FB60FB68134A9342FB
:1058A80001D903231BE07B681B69002BF2DA002374
:1058B800FB607B681B6943F001027B681A61FB6827
:1058C8000133FB60FB68094A934201D9032306E0D0
:1058D8007B681B6903F00103012BF0D000231846F5
:1058E8001437BD465DF8047B704700BF400D0300C8
:1058F80080B584B000AF78600B46FB704FF407703A
:1059080002F05EF90346FB60FB68002B05D17B685B
:105918000022C3F8BC22022366E07B68FA68C3F859
:10592800BC227B681B7C002B19D14FF40073022228
:105938008121786801F0A1FF7B6801221A874FF462
:10594800007302220121786801F097FF7B68012229
:10595800A3F878217B681022A3F84E2016E0402394
:1059680002228121786801F088FF7B6801221A876A
:10597800402302220121786801F07FFF7B68012221
:10598800A3F878217B681022A3F84E20082303226D
:105998008221786801F071FF7B680122A3F84C200E
:1059A8007B68D3F8C0321B689847FB680022C3F8AD
:1059B8001422FB680022C3F818227B681B7C002B8A
:1059C80009D1FB68D3F804224FF4007301217868E9
:1059D80002F042F807E0FB68D3F8042240230121D3
:1059E800786802F039F8002318461037BD4680BDA4
:1059F80080B584B000AF78600B46FB700023FB7362
:105A08008121786801F05FFF7B6800221A870121F5
:105A1800786801F058FF7B680022A3F8782182217A
:105A2800786801F050FF7B680022A3F84C207B685F
:105A38000022A3F84E207B68D3F8BC32002B0ED08E
:105A48007B68D3F8C0325B6898477B68D3F8BC3270
:105A5800184602F0BDF87B680022C3F8BC22FB7B25
:105A680018461037BD4680BD80B586B000AF786057
:105A780039607B68D3F8BC323B610023FB73002399
:105A8800BB810023FB753B681B7803F06003002B88
:105A98003AD0202B40F097803B68DB88002B29D038
:105AA8003B681B785BB2002B11DA7B68D3F8C032F5
:105AB8009B683A68507839693A68D2889847396952
:105AC8003B68DB881A46786801F09DFA82E03B68FB
